{
  "_format": "hh-sol-artifact-1",
  "contractName": "Trexcontract",
  "sourceName": "contracts/Trexcontract.sol",
  "abi": [
    {
      "constant": true,
      "inputs": [],
      "name": "name",
      "outputs": [
        {
          "name": "tokenName",
          "type": "string"
        }
      ],
      "payable": false,
      "stateMutability": "view",
      "type": "function"
    },
    {
      "constant": true,
      "inputs": [
        {
          "name": "tokenId",
          "type": "uint256"
        }
      ],
      "name": "getApproved",
      "outputs": [
        {
          "name": "",
          "type": "address"
        }
      ],
      "payable": false,
      "stateMutability": "view",
      "type": "function"
    },
    {
      "constant": false,
      "inputs": [
        {
          "name": "_to",
          "type": "address"
        },
        {
          "name": "_tokenId",
          "type": "uint256"
        }
      ],
      "name": "approve",
      "outputs": [],
      "payable": false,
      "stateMutability": "nonpayable",
      "type": "function"
    },
    {
      "constant": true,
      "inputs": [
        {
          "name": "tokenId",
          "type": "uint256"
        }
      ],
      "name": "getTrex",
      "outputs": [
        {
          "name": "genes",
          "type": "uint256"
        },
        {
          "name": "birthTime",
          "type": "uint256"
        },
        {
          "name": "mumId",
          "type": "uint256"
        },
        {
          "name": "dadId",
          "type": "uint256"
        },
        {
          "name": "generation",
          "type": "uint256"
        }
      ],
      "payable": false,
      "stateMutability": "view",
      "type": "function"
    },
    {
      "constant": true,
      "inputs": [],
      "name": "__owner",
      "outputs": [
        {
          "name": "",
          "type": "address"
        }
      ],
      "payable": false,
      "stateMutability": "view",
      "type": "function"
    },
    {
      "constant": true,
      "inputs": [],
      "name": "totalSupply",
      "outputs": [
        {
          "name": "total",
          "type": "uint256"
        }
      ],
      "payable": false,
      "stateMutability": "view",
      "type": "function"
    },
    {
      "constant": true,
      "inputs": [
        {
          "name": "",
          "type": "uint256"
        }
      ],
      "name": "trexIndexToApproved",
      "outputs": [
        {
          "name": "",
          "type": "address"
        }
      ],
      "payable": false,
      "stateMutability": "view",
      "type": "function"
    },
    {
      "constant": false,
      "inputs": [
        {
          "name": "_from",
          "type": "address"
        },
        {
          "name": "_to",
          "type": "address"
        },
        {
          "name": "_tokenId",
          "type": "uint256"
        }
      ],
      "name": "transferFrom",
      "outputs": [],
      "payable": false,
      "stateMutability": "nonpayable",
      "type": "function"
    },
    {
      "constant": true,
      "inputs": [],
      "name": "Symbol",
      "outputs": [
        {
          "name": "",
          "type": "string"
        }
      ],
      "payable": false,
      "stateMutability": "view",
      "type": "function"
    },
    {
      "constant": false,
      "inputs": [
        {
          "name": "_from",
          "type": "address"
        },
        {
          "name": "_to",
          "type": "address"
        },
        {
          "name": "_tokenId",
          "type": "uint256"
        }
      ],
      "name": "safeTransferFrom",
      "outputs": [],
      "payable": false,
      "stateMutability": "nonpayable",
      "type": "function"
    },
    {
      "constant": true,
      "inputs": [
        {
          "name": "",
          "type": "uint256"
        }
      ],
      "name": "trexes",
      "outputs": [
        {
          "name": "genes",
          "type": "uint256"
        },
        {
          "name": "birthTime",
          "type": "uint256"
        },
        {
          "name": "mumId",
          "type": "uint256"
        },
        {
          "name": "dadId",
          "type": "uint256"
        },
        {
          "name": "generation",
          "type": "uint256"
        },
        {
          "name": "owner",
          "type": "address"
        }
      ],
      "payable": false,
      "stateMutability": "view",
      "type": "function"
    },
    {
      "constant": true,
      "inputs": [
        {
          "name": "tokenId",
          "type": "uint256"
        }
      ],
      "name": "ownerOf",
      "outputs": [
        {
          "name": "owner",
          "type": "address"
        }
      ],
      "payable": false,
      "stateMutability": "view",
      "type": "function"
    },
    {
      "constant": true,
      "inputs": [],
      "name": "Creation_Limit_Gen0",
      "outputs": [
        {
          "name": "",
          "type": "uint256"
        }
      ],
      "payable": false,
      "stateMutability": "view",
      "type": "function"
    },
    {
      "constant": true,
      "inputs": [
        {
          "name": "owner",
          "type": "address"
        }
      ],
      "name": "balanceOf",
      "outputs": [
        {
          "name": "balance",
          "type": "uint256"
        }
      ],
      "payable": false,
      "stateMutability": "view",
      "type": "function"
    },
    {
      "constant": true,
      "inputs": [
        {
          "name": "_interfaceId",
          "type": "bytes4"
        }
      ],
      "name": "supportInterface",
      "outputs": [
        {
          "name": "",
          "type": "bool"
        }
      ],
      "payable": false,
      "stateMutability": "pure",
      "type": "function"
    },
    {
      "constant": true,
      "inputs": [],
      "name": "Name",
      "outputs": [
        {
          "name": "",
          "type": "string"
        }
      ],
      "payable": false,
      "stateMutability": "view",
      "type": "function"
    },
    {
      "constant": true,
      "inputs": [],
      "name": "symbol",
      "outputs": [
        {
          "name": "tokenSymbol",
          "type": "string"
        }
      ],
      "payable": false,
      "stateMutability": "view",
      "type": "function"
    },
    {
      "constant": false,
      "inputs": [
        {
          "name": "operator",
          "type": "address"
        },
        {
          "name": "approved",
          "type": "bool"
        }
      ],
      "name": "setApprovalForAll",
      "outputs": [],
      "payable": false,
      "stateMutability": "nonpayable",
      "type": "function"
    },
    {
      "constant": false,
      "inputs": [
        {
          "name": "_to",
          "type": "address"
        },
        {
          "name": "_tokenId",
          "type": "uint256"
        }
      ],
      "name": "transfer",
      "outputs": [],
      "payable": false,
      "stateMutability": "nonpayable",
      "type": "function"
    },
    {
      "constant": true,
      "inputs": [
        {
          "name": "",
          "type": "uint256"
        }
      ],
      "name": "trexIndexToOwner",
      "outputs": [
        {
          "name": "",
          "type": "address"
        }
      ],
      "payable": false,
      "stateMutability": "view",
      "type": "function"
    },
    {
      "constant": false,
      "inputs": [
        {
          "name": "_from",
          "type": "address"
        },
        {
          "name": "_to",
          "type": "address"
        },
        {
          "name": "_tokenId",
          "type": "uint256"
        },
        {
          "name": "_data",
          "type": "bytes"
        }
      ],
      "name": "safeTransferFrom",
      "outputs": [],
      "payable": false,
      "stateMutability": "nonpayable",
      "type": "function"
    },
    {
      "constant": false,
      "inputs": [
        {
          "name": "_genes",
          "type": "uint256"
        }
      ],
      "name": "createtrexGen0",
      "outputs": [],
      "payable": false,
      "stateMutability": "nonpayable",
      "type": "function"
    },
    {
      "constant": false,
      "inputs": [
        {
          "name": "_dadId",
          "type": "uint256"
        },
        {
          "name": "_mumId",
          "type": "uint256"
        }
      ],
      "name": "breed",
      "outputs": [
        {
          "name": "",
          "type": "uint256"
        }
      ],
      "payable": false,
      "stateMutability": "nonpayable",
      "type": "function"
    },
    {
      "constant": true,
      "inputs": [
        {
          "name": "owner",
          "type": "address"
        },
        {
          "name": "_operator",
          "type": "address"
        }
      ],
      "name": "isApprovedForAll",
      "outputs": [
        {
          "name": "",
          "type": "bool"
        }
      ],
      "payable": false,
      "stateMutability": "view",
      "type": "function"
    },
    {
      "constant": true,
      "inputs": [],
      "name": "gen0Counter",
      "outputs": [
        {
          "name": "",
          "type": "uint256"
        }
      ],
      "payable": false,
      "stateMutability": "view",
      "type": "function"
    },
    {
      "anonymous": false,
      "inputs": [
        {
          "indexed": false,
          "name": "owner",
          "type": "address"
        },
        {
          "indexed": false,
          "name": "trexId",
          "type": "uint256"
        },
        {
          "indexed": false,
          "name": "mumId",
          "type": "uint256"
        },
        {
          "indexed": false,
          "name": "dadId",
          "type": "uint256"
        },
        {
          "indexed": false,
          "name": "genes",
          "type": "uint256"
        }
      ],
      "name": "Birth",
      "type": "event"
    },
    {
      "anonymous": false,
      "inputs": [
        {
          "indexed": true,
          "name": "from",
          "type": "address"
        },
        {
          "indexed": true,
          "name": "to",
          "type": "address"
        },
        {
          "indexed": true,
          "name": "tokenId",
          "type": "uint256"
        }
      ],
      "name": "Transfer",
      "type": "event"
    },
    {
      "anonymous": false,
      "inputs": [
        {
          "indexed": true,
          "name": "owner",
          "type": "address"
        },
        {
          "indexed": true,
          "name": "approved",
          "type": "address"
        },
        {
          "indexed": true,
          "name": "tokenId",
          "type": "uint256"
        }
      ],
      "name": "Approval",
      "type": "event"
    },
    {
      "anonymous": false,
      "inputs": [
        {
          "indexed": true,
          "name": "owner",
          "type": "address"
        },
        {
          "indexed": true,
          "name": "operator",
          "type": "address"
        },
        {
          "indexed": false,
          "name": "approved",
          "type": "bool"
        }
      ],
      "name": "ApprovalForAll",
      "type": "event"
    }
  ],
  "bytecode": "0x608060405260008054600160a060020a0319163317905534801561002257600080fd5b506112ec806100326000396000f3fe608060405234801561001057600080fd5b5060043610610190576000357c010000000000000000000000000000000000000000000000000000000090048063670be64d116100fb578063a9059cbb116100b4578063b99dc4311161008e578063b99dc431146105b5578063d9ecad7b146105d2578063e985e9c5146105f5578063ef5e94aa1461062357610190565b8063a9059cbb146104a6578063b2fa5892146104d2578063b88d4fde146104ef57610190565b8063670be64d146103ea57806370a08231146103f257806375e79be6146104185780638052474d1461046857806395d89b4114610470578063a22cb4651461047857610190565b80631c6e8ce21161014d5780631c6e8ce2146102e357806323b872dd146103005780633045aaf31461033657806342842e0e1461033e5780634379b94d146103745780636352211e146103cd57610190565b806306fdde0314610195578063081812fc14610212578063095ea7b31461024b5780630da57b911461027957806313effa0f146102c157806318160ddd146102c9575b600080fd5b61019d61062b565b6040805160208082528351818301528351919283929083019185019080838360005b838110156101d75781810151838201526020016101bf565b50505050905090810190601f1680156102045780820380516001836020036101000a031916815260200191505b509250505060405180910390f35b61022f6004803603602081101561022857600080fd5b5035610662565b60408051600160a060020a039092168252519081900360200190f35b6102776004803603604081101561026157600080fd5b50600160a060020a03813516906020013561068f565b005b6102966004803603602081101561028f57600080fd5b50356106ea565b6040805195865260208601949094528484019290925260608401526080830152519081900360a00190f35b61022f61073a565b6102d1610749565b60408051918252519081900360200190f35b61022f600480360360208110156102f957600080fd5b5035610768565b6102776004803603606081101561031657600080fd5b50600160a060020a03813581169160208101359091169060400135610783565b61019d6107aa565b6102776004803603606081101561035457600080fd5b50600160a060020a038135811691602081013590911690604001356107e1565b6103916004803603602081101561038a57600080fd5b50356107fd565b6040805196875260208701959095528585019390935260608501919091526080840152600160a060020a031660a0830152519081900360c00190f35b61022f600480360360208110156103e357600080fd5b503561084a565b6102d1610865565b6102d16004803603602081101561040857600080fd5b5035600160a060020a031661086a565b6104546004803603602081101561042e57600080fd5b50357bffffffffffffffffffffffffffffffffffffffffffffffffffffffff1916610885565b604080519115158252519081900360200190f35b61019d610918565b61019d61094f565b6102776004803603604081101561048e57600080fd5b50600160a060020a0381351690602001351515610986565b610277600480360360408110156104bc57600080fd5b50600160a060020a038135169060200135610a0a565b61022f600480360360208110156104e857600080fd5b5035610ad9565b6102776004803603608081101561050557600080fd5b600160a060020a0382358116926020810135909116916040820135919081019060808101606082013564010000000081111561054057600080fd5b82018360208201111561055257600080fd5b8035906020019184600183028401116401000000008311171561057457600080fd5b91908080601f016020809104026020016040519081016040528093929190818152602001838380828437600092019190915250929550610af4945050505050565b610277600480360360208110156105cb57600080fd5b5035610b1d565b6102d1600480360360408110156105e857600080fd5b5080359060200135610b43565b6104546004803603604081101561060b57600080fd5b50600160a060020a0381358116916020013516610c89565b6102d1610cb7565b60408051808201909152600481527f5472657800000000000000000000000000000000000000000000000000000000602082015290565b600154600090821061067357600080fd5b50600090815260046020526040902054600160a060020a031690565b6106993382610cbd565b15156106a457600080fd5b6106ae8183610cdd565b6040518190600160a060020a0384169033907f8c5be1e5ebec7d5bd14f71427d1e84f3dd0314c0f7b2291e5b200ac8c7c3b92590600090a45050565b60008060008060008060018781548110151561070257fe5b60009182526020909120600690910201600181015460028201546003830154600484015493549b929a50909850965090945092505050565b600054600160a060020a031681565b60008054600160a060020a0316331461076157600080fd5b5060015490565b600460205260009081526040902054600160a060020a031681565b61078f33848484610d18565b151561079a57600080fd5b6107a5838383610d89565b505050565b60408051808201909152600381527f5452580000000000000000000000000000000000000000000000000000000000602082015281565b6107a58383836020604051908101604052806000815250610af4565b600180548290811061080b57fe5b600091825260209091206006909102018054600182015460028301546003840154600485015460059095015493955091939092600160a060020a031686565b600090815260026020526040902054600160a060020a031690565b606481565b600160a060020a031660009081526003602052604090205490565b60007bffffffffffffffffffffffffffffffffffffffffffffffffffffffff1982167f80ac58cd00000000000000000000000000000000000000000000000000000000148061091257507bffffffffffffffffffffffffffffffffffffffffffffffffffffffff1982167f01ffc9a700000000000000000000000000000000000000000000000000000000145b92915050565b60408051808201909152600481527f5472657800000000000000000000000000000000000000000000000000000000602082015281565b60408051808201909152600381527f5452580000000000000000000000000000000000000000000000000000000000602082015290565b600160a060020a03821633141561099c57600080fd5b336000818152600560209081526040808320600160a060020a03871680855290835292819020805460ff1916861515908117909155815190815290519293927f17307eab39ab6107e8899845ad3d59bd9653f200f220920489ca2b5937696c31929181900390910190a35050565b600160a060020a0382161515610a6a576040805160e560020a62461bcd02815260206004820152601b60248201527f546f2061646472657373206d75737420626520646566696e65642e0000000000604482015290519081900360640190fd5b600160a060020a038216301415610ab55760405160e560020a62461bcd02815260040180806020018281038252602781526020018061129a6027913960400191505060405180910390fd5b610abf3382610cbd565b1515610aca57600080fd5b610ad5338383610d89565b5050565b600260205260009081526040902054600160a060020a031681565b610b0033858585610d18565b1515610b0b57600080fd5b610b1784848484610e6a565b50505050565b600654606411610b2c57600080fd5b600680546001019055610ad5600080808433610e8c565b6000610b4f3384610cbd565b1515610ba5576040805160e560020a62461bcd02815260206004820152601f60248201527f746865207573657220646f6573206e6f74206f776e2074686520746f6b656e00604482015290519081900360640190fd5b610baf3383610cbd565b1515610c05576040805160e560020a62461bcd02815260206004820152601f60248201527f746865207573657220646f6573206e6f74206f776e2074686520746f6b656e00604482015290519081900360640190fd5b600080610c11856106ea565b94505050509150600080610c24866106ea565b945050505091506000610c37858461105d565b9050600082851015610c545750600182016002815b049050610c6f565b82851115610c69575060018401600281610c4c565b50600182015b610c7c888a838533610e8c565b5050505050505092915050565b600160a060020a03918216600090815260056020908152604080832093909416825291909152205460ff1690565b60065481565b600090815260026020526040902054600160a060020a0391821691161490565b600091825260046020526040909120805473ffffffffffffffffffffffffffffffffffffffff1916600160a060020a03909216919091179055565b6000600160a060020a0383161515610d2f57600080fd5b610d398483610cbd565b1515610d4457600080fd5b6001548210610d5257600080fd5b33600160a060020a0385161480610d6e5750610d6e858361106f565b80610d7e5750610d7e8486610c89565b90505b949350505050565b600160a060020a0380831660008181526003602090815260408083208054600101905585835260029091529020805473ffffffffffffffffffffffffffffffffffffffff19169091179055831615610e2457600160a060020a0383166000908152600360209081526040808320805460001901905583835260049091529020805473ffffffffffffffffffffffffffffffffffffffff191690555b8082600160a060020a031684600160a060020a03167fddf252ad1be2c89b69c2b068fc378daa952ba7f163c4a11628f55a4df523b3ef60405160405180910390a4505050565b610e75848484610d89565b610e818484848461108f565b1515610b1757600080fd5b6000610e9661122a565b506040805160c0810182528481524260208083019182528284018a815260608085018b815260808087018c8152600160a060020a038b811660a0808b0182815260018054808201825560008290528d517fb10e2d527612073b26eecdfd717e6a320cf44b4afac2b0732d9fcbe2b7fa0cf66006909202918201559b517fb10e2d527612073b26eecdfd717e6a320cf44b4afac2b0732d9fcbe2b7fa0cf78d015598517fb10e2d527612073b26eecdfd717e6a320cf44b4afac2b0732d9fcbe2b7fa0cf88c015595517fb10e2d527612073b26eecdfd717e6a320cf44b4afac2b0732d9fcbe2b7fa0cf98b015592517fb10e2d527612073b26eecdfd717e6a320cf44b4afac2b0732d9fcbe2b7fa0cfa8a015593517fb10e2d527612073b26eecdfd717e6a320cf44b4afac2b0732d9fcbe2b7fa0cfb909801805473ffffffffffffffffffffffffffffffffffffffff1916989091169790971790965592548751918252600019019381018490528087018d90529081018b90529081018890529351929390927f0a5311bd2a6608f08a180df2ee7c5946819a649b204b554bb8e39825b2c50ad5929181900390910190a161105260008583610d89565b979650505050505050565b6305f5e1009182900482029190060190565b600090815260046020526040902054600160a060020a0391821691161490565b600061109a8461121c565b15156110a857506001610d81565b6040517f150b7a020000000000000000000000000000000000000000000000000000000081523360048201818152600160a060020a03888116602485015260448401879052608060648501908152865160848601528651600095928a169463150b7a029490938c938b938b939260a4019060208501908083838e5b8381101561113b578181015183820152602001611123565b50505050905090810190601f1680156111685780820380516001836020036101000a031916815260200191505b5095505050505050602060405180830381600087803b15801561118a57600080fd5b505af115801561119e573d6000803e3d6000fd5b505050506040513d60208110156111b457600080fd5b505160405190915080602f61126b8239602f01905060405180910390207bffffffffffffffffffffffffffffffffffffffffffffffffffffffff1916817bffffffffffffffffffffffffffffffffffffffffffffffffffffffff191614915050949350505050565b6000903b63ffffffff161190565b60c06040519081016040528060008152602001600081526020016000815260200160008152602001600081526020016000600160a060020a03168152509056fe6f6e455243373231526563656976656428616464726573732c616464726573732c75696e743235362c62797465732943616e6e6f74207472616e7366657220746f2074686520636f6e747261637420697473656c662ea165627a7a72305820780b9107407f3b2c08ac1e343caf7ed27c07cef2c479248f2fd29f73c61ae5770029",
  "linkReferences": {},
  "deployedLinkReferences": {}
}